:0300000002142ABD
:0C142A00787FE4F6D8FD7581070214718C
:101C3C00D4C200D5FDD2BBB6FEC8FDCBC4CEE5C127
:101C4C00F9C6DFB0CBBEC5CAAEB6ACC0B0B3F5D822
:021C5C00A500E1
:101A1B007BFF7A1C793F78047403F20822C2A5C2BB
:101A2B00A7AF018F80D2A77F057E00121C5EC2A7D5
:101A3B00227800E2FB08E2FA08E2F9227F01FE12AB
:101A4B001C5E0AEAD3946422E2F5827583001208C5
:031A5B0092FF22D5
:101C5E00D3EF9400EE9400400F7DC77C01DCFEDDD7
:081C6E00FAEF1F70EB1E80E885
:011C7600224B
:101BF500E4FBC2A6D2A5D2A77F01FE121C5EE5803A
:101C050030E70C0BEBD3946440F4C2A77F0022C2EB
:031C1500A77F01A5
:011C180022A9
:021CA600A9078C
:101CA800E4FA121BF5EF7006121A4740F522C2A695
:031CB800121A28D5
:011CBB002206
:021CBC00A90776
:101CBE00E4FA121BF5EF7006121A4740F522D2A66F
:031CCE00121A28BF
:011CD10022F0
:101CFA00D2A47F30121CA67F0C121CA67F01021CE4
:011D0A00A632
:101C1900EF70047F808016EFB401047F90800EEF8F
:101C2900B402047F888006EFB403027F98EF2DFF8A
:031C3900021CA6E4
:0A1B2C007896EBF208EAF208E9F2FD
:101B3600E4789BF2AF0518E2FD121C197896121A8A
:101B46003E789B121A53600A121CBC789BE204F280
:021B560080EA23
:011B5800226A
:101AC9007800EBF208EAF208E9F208EDF208E2FF21
:101AD90008E2FD121C19121A3C08121A53121CBCF6
:101AE9007803E2F582758300A3121A3C120892FF6B
:031AF900021CBC10
:101BD0007806EFF2AF05AE03AD06121C19E275F000
:101BE0000A842430FF121CBCE275F00A84E5F0245C
:051BF00030FF021CBCE7
:101398007808EDF218EFF27BFF7A1C793FBF01095C
:1013A800121A2114F2E4FD800B7807E225E0FD1201
:1013B8001A2114F2121AC97BFF7A1C793C789A74A4
:1013C80003F2FD121B2C7808E2D3940A5009121A72
:1013D8001B04F27D1A801F7808E2FFD3940A400F9D
:1013E800EFD394135009121A1B04F27D14800712CC
:1013F8001A1B04F27D1C121AC97808E275F00A84D7
:10140800AFF0EF7BFF7A1C793F600B25E0FD121AE5
:10141800217405F28008121A217405F27D14121A3B
:02142800C922D7
:0E1D2B0081838587898B8D80828486888A8C4F
:091A9500870C0009102005042251
:10172200120904900006120892FF75F00A02085787
:101732002430FF7809E2FB08E2FA08E2F922AFF06E
:10174200EF24300209043395E0FEEF24F4FFEE3477
:10175200FFFE7C007D0A020938AFF0EF2430020957
:1017620004EBF208EAF208E9F222EF1392A1EFC3C6
:1017720013FFD2A022E4FD7F8E121AFCE4FC222C7D
:10178200F8E2FD121AFC0CEC22120904900002226B
:101AFC00C2A200C2A000D2A200E4FE12176C00C267
:101B0C00A0000EEEB408F4E4FEED1392A1EDC313A5
:0F1B1C00FDD2A000C2A0000EEEB408EDC2A200E0
:011B2B002297
:1019D600C2A200C2A000D2A200E4FD12176C00C28F
:1019E600A0000DEDB408F400E4FDA2A1E433FFC4A9
:1019F6003333335480FCEEC3134CFED2A000C2A096
:101A0600000DEDB408E4C2A200D2A000C2A100D22B
:041A1600A100AF0676
:011A1A0022A9
:101C7700121777EC901D3293FF740C121781B4077B
:081C8700F27D807F8E021AFC41
:0515C500789612176387
:1015CA00E408F27899E2FFC394075020EF901D2BAC
:1015DA0093FF1219D6789612173708E2F5827583A7
:1015EA0000EF1209047899E204F280D7E47899F2BC
:1015FA007899E2FFC394075038789612173708E2B1
:10160A00FEF582758300120892FDC4540F75F00A24
:10161A0084E5F075F00AA48E82758300120904ED40
:10162A00540F8F827583001208BF7899E204F28002
:01163A00BFF0
:01163B00228C
:100F84007809121763121735900007743212090496
:100F9400900008743012172224309000091217228E
:100FA40090000A12174090000B742D12090490004F
:100FB40004121728243090000C1209049000041223
:100FC400172890000D12174090000E742D1209047A
:100FD400900003121728243090000F120904900087
:100FE4000312172890001012175B900011E41217D7
:100FF4008B121728243090001212178B1217289086
:10100400001312175B900014743A12090490000143
:1010140012172824309000151209049000011217A9
:1010240028AFF0EF243090001612090490001774D2
:101034003A12090412087912172B2430900018125E
:101044000904EF12172CAFF0EF24309000191209A5
:101054000490001AE4120904ED6401703212173589
:10106400900002120892FFD36480948C4021EF1206
:101074001748EF121732900012EF12178B120892D2
:10108400FF121748ED121732900013EF12090422D1
:05186700789F121763D9
:10186C00E4FC789F1217378C82758300120892FF64
:10187C0075F00A84540FC454F0FE74A22CF8EEF2E6
:10188C00EF75F00A8474A22CF8E225F0F20CECB49B
:10189C0007D0121777EC901D3293FF74A2121781A8
:0A18AC00B407F27D807F8E021AFC63
:10117A00CEC200CAAA00B6C8002500504D00414D93
:10118A0000202000C4D6D6D3002020202000203AF8
:10119A003A2000D2F4C0D600B9D800BFAA00B0AE37
:1011AA00C4E300CBFDCBB5002D3E003C2D00CAB1F7
:1011BA00BCE4C9E8D6C3004600464600BBF0D4D614
:1011CA00B1A8BEAFD6D000B0B4CFC2C8CED2E2BCAE
:1011DA00FCBFC9C8A1CFFB00CAB1BCE4B5BDC1CB35
:1011EA0000C4D6D6D3C4D6D6D300B0B4C8CED2E2C1
:1011FA00BCFCC8A1CFFB00BDF1C8D5CCECC6F80039
:10120A00CCECC6F8D4DACFDFBBF1C8A100312ED6B8
:10121A00F7BDE7C3E600322EC4D6D6D3C9E8D6C393
:10122A0000332ECAB1BCE4C9E8D6C300342ECCECD4
:07123A00C6F8BBF1C8A100DA
:101A9E0082210A0A815100812001812F01813401A6
:101AAE00813001811F01812C008923436C6F756485
:0A1ABE0079202000813300815000E0
:1012F5007BFF7A11798E789AF2E4FD227BFF789A4A
:10130500F2E4FD227BFF789AF27D0222F27BFE7ADF
:10131500007935227BFF7A1179B2789AF2E4FD22C1
:101325007A1279A674017BFF7804F2087407F22219
:101335007BFF789A7405F27D02227BFE7A0079475D
:10134500789A7402F2FD22E2FFC364809480227BC6
:10135500FF789A7402F2E4FD227BFFE4789AF22288
:101365007BFE7A00793CF2FD227BFF789A7401F2CC
:101375007D02227BFFE4789AF2227837E2D36480FB
:10138500948C7BFF227BFF7A11798B22D3EF6480CB
:0313950094BB22E4
:101901007A11797A12135E7D02121B2C7A11797D7C
:101911007404121309121B2C7BFF7A1179801213A4
:1019210045121B2C7A1179837406121309121B2C90
:101931007BFF7A1279EA781FE225E0FD78047402D0
:08194100F2087407F2021AC952
:100E0C00121A5E7813EFF2121D1C782CEFF2BF0150
:100E1C000A7F01121CA678517404F27834E2640142
:100E2C00701112137F40067A11798580097A117935
:100E3C0088800312138A789A7404F27D01121B2C99
:100E4C007820E26401702874061212F5121B2C78BB
:100E5C0021E2FF7836E2B507227822E2FF7837E20A
:100E6C00B5071878517404F27F01121CA6800C7A15
:100E7C001179937406121301121B2C1213121215F2
:100E8C00C51213127834E2FD120F84E4789A12130F
:100E9C0065121B2C7BFE7A007947E4789AF27D016F
:100EAC00121B2C788974FEF2087400F2087431124B
:100EBC0013111219497831E2FF08E2FD1213987BE5
:100ECC00FF7A1279BD783BE2FF75F00A120857AF32
:100EDC00F0EF25E0FD78047403F2E408F2121AC96D
:100EEC00783BE2FF3395E0FEEF24D0FFEE3407FEB3
:100EFC007C007D0C120938ED25E02414FD78047477
:100F0C0003F2087401F27BFF7A1279BD121AC9122E
:100F1C001312121792EF25E025E0FD7BFF7A127970
:100F2C004178047403F2087406F2121AC9121312EF
:100F3C00121792EF25E025E02402FD7A1279417414
:100F4C000312132B121AC9782EE2FF7B017D0212B9
:100F5C001BD0782DE2FF7B057D02121BD07851E26D
:100F6C0060057F01121CA67813E2B4010A7F0112FE
:070F7C001CA678517405F278
:010F8300224B
:061D5100121901020E0C44
:100A7E0078157401F274031212F5121B2C120C422B
:100A8E007BFF7A117998789A7403F27D01121B2CF0
:100A9E007BFF7A11799D789A7403F27D02121B2CDA
:100AAE00121A5E7814EFF2120C427820E270087B74
:100ABE00FF7A1179A2800C7820E2B401097BFF7ACB
:100ACE001179A5120C59782FE2B401087BFF7A1127
:100ADE0079A8800C782FE2B4020F7BFF7A1179ADE2
:100AEE00789A7403F2FD121B2C7815E224FE601B1B
:100AFE00146022146026240370391213257D02120D
:100B0E001AC97A11798B12133580251213257D049B
:100B1E00121AC9801E740512131980147A1179B530
:100B2E00121335121B2C12138A789A7405F2E4FDF7
:100B3E00121B2C7814E2FFB4021208E2C394044094
:100B4E0003020C207815E204F2020C32EF6403600B
:100B5E000A7814E264046003020C257815E264013D
:100B6E00702C18E27821B40305E204F28003E2143B
:100B7E00F2782112134C5005743BF2800912139136
:100B8E004004E47821F27821E2FF7B058036781567
:100B9E00E26402703618E27822B40305E204F280B1
:100BAE0003E214F2782212134C500778377417F2BE
:100BBE00800CD3EF648094974004E47822F278227C
:100BCE00E2FF7B027D01121BD080597815E264038F
:100BDE00702C7820E2700404F28004E47820F2781D
:100BEE0020E270087BFF7A1179A2800D7820E264F2
:100BFE000170317BFF7A1179A5120C598026781578
:100C0E00E26404701F782FE2B401057402F28014BE
:100C1E00782F7401F2800D7814E2B40107785174C4
:100C2E0005F2800A7851E264017003020AAE7F0178
:030C3E00121CA6DF
:100C4100227822E2FF7B027D01121BD07821E2FF94
:100C51007B057D01121BD022789A7407F2E4FD1204
:030C61001B2C2227
:031D5700020A7EFF
:1005F60078167401F27BFE7A00793C789AF2FD1245
:100606001B2C12133F121B2C7A1179B81213541299
:100616001B2C121A5E7817EFF27834E2640170111F
:1006260012137F40067A11798580097A11798880BC
:100636000312138A789A7406F27D02121B2C740632
:10064600121319121B2C7BFF7A1279A67816E21464
:1006560025E0FDE412132D121AC97817E2FFB40241
:100666001518E2C3940740067401F202080D7816C5
:10067600E204F202080DEF6403600A7817E26404EC
:1006860060030207FB7816E26401702E08E2FFB4ED
:1006960003077835E204F28009EFB404057835E201
:1006A60014F2783512134C5005743BF2800912137C
:1006B600914004E47835F212081D7816E26402705F
:1006C6002E08E2FFB403077836E204F28009EFB49D
:1006D60004057836E214F2783612134C5005743B52
:1006E600F280091213914004E47836F212081D785C
:1006F60016E26403703E08E2FFB403077837E204AB
:10070600F28009EFB404057837E214F27837121351
:100716004C50057417F2800CD3EF64809497400414
:10072600E47837F21213127834E2FD120F841213B2
:100736003F121B2C7816E26404703608E2FFB403FD
:10074600077838E204F28009EFB404057838E21439
:10075600F27838E2FFC3648094815005741FF280FA
:100766000DD3EF6480949F400578387401F2120827
:100776003A7816E26405703608E2FFB40307783962
:10078600E204F28009EFB404057839E214F278390C
:10079600E2FFC3648094815005740CF2800DD3EFA0
:1007A6006480948C400578397401F212083A781600
:1007B600E26406702A08E2FFB40307783BE204F21B
:1007C6008009EFB40405783BE214F2121312783470
:1007D600E2FD120F84789A7401121365121B2C78AD
:1007E60016E2640770217834E2700404F28018E49B
:1007F6007834F280127817E2B4010C78517405123D
:100806001311121867800A7851E264027003020617
:06081600187F01121CA670
:10081C00227BFE7A0079357834E2FD120F847BFE60
:10082C007A007947789A7402F2FD121B2C227BFE17
:10083C007A0079357834E2FD120F847BFE7A0079E8
:0B084C003C789A7401F2FD121B2C2274
:1014B6007F0A1218B67F081218B6E4FF1218B67F14
:1014C6000C1218B67F0A1218B6782FE2FF1218B659
:1014D6007F0B1218B6782CE2B4010D7BFF7A1179D6
:1014E600C1121B59E4782CF27F01121CA67BFF7AED
:1014F6001179C3121B597A1179C612135E7D011236
:101506001B2C7A1179D11213787D02121B2C7818B4
:10151600E26011E47851F2782CF27F131218B67F4C
:1015260001021CA67851E270E57820F2782CF27F51
:0915360001121CA67F131218B665
:01153F002289
:10163C007F0A1218B67F081218B6E4FF1218B67F8C
:10164C000C1218B67F0A1218B67F021218B67F0B4E
:10165C001218B67F01121CA67A1179E212135412D9
:10166C001B2C7BFF7A1179EB789A7402F27D0112B4
:10167C001B2C7A1179F412136E121B2CE460107867
:10168C0051F27820F27F131218B67F01021CA67853
:10169C0051E270E87820F2782CF27F01121CA67FC0
:0416AC00131218B647
:0116B0002217
:10199000121A5E7819EFF27BFF7A12790112135650
:1019A000121B2C7BFE7A007923789A7401F2FD12C7
:1019B0001B2C7A12790A12136E121B2C7819E2B4BE
:1019C000010778517405F280077851E2640360C022
:0519D0007F01121CA6BE
:0119D50022EF
:10154000E4781AF208F27BFF7A127917789AF2FDA2
:10155000121B2C7A1279201213787D01121B2C7B1E
:10156000FF7A12792BE4789AF27D02121B2C7BFF12
:101570007A127936E4789AF27D03121B2C121A5EE5
:10158000781BEFF27A1179B51215B7781BE2B40126
:10159000147A11798B1215B7781AE204F2E2C39427
:1015A000044002E4F2781BE2B402D27F01121CA6CE
:0615B000781AE27851F206
:0F15B600227BFF18E2FD789A7406F2121B2C229A
:101CD200759850758920E4F587758DFD758BFDD259
:061CE200ACD2AFD28E224D
:0A1B5900781CEBF208EAF208E9F24A
:101B6300E4FF781CE2FB08E2FA08E2F98F8275834E
:101B730000120892600AF5993099FDC2990F80E22C
:011B8300223F
:03002300020C6468
:100C6400C0E0C0F0C083C082C0D075D000C000C056
:100C740001C002C003C004C005C006C00720980319
:100C8400020DF1C2987852E599F2E2FFC394004054
:100C94000CEFD39402500618EFF2020DF1EFB403F7
:100CA400107834E2B40105E4F2020DF17834020D57
:100CB400977852E2FFC394044073EFD3940F506DBE
:100CC400EFB404047837804EEFB4050478378051CC
:100CD400EFB406047836803EEFB4070478368041DA
:100CE400EFB408047835802EEFB4090478358031E8
:100CF400EFB40A04783B801EEFB40B04783B8021E8
:100D0400EFB40C047839800EEFB40D0478398011F7
:100D1400EFB40E077838E204F28009EFB40F0578D7
:100D240038E214F2121312121867020DF17852E22B
:100D3400FFC39410400FEFD394145009EF540F786D
:100D44001FF2020DF17852E2FFC394154056EFD31F
:100D5400941B5050EFB415057822020DEEEFB41633
:100D6400047822800EEFB417047821807DEFB41844
:100D7400077821E214F28075EFB4190E7820E2B4FA
:100D84000104E4F28067782080097852E2FFB41A03
:100D940007782F7401F28055EF641B7050782F741C
:100DA40002F280497852E2641C70257F0A1218B658
:100DB4007F021218B6E4FF1218B67F0C1218B67F21
:100DC4000A1218B67F011218B67F0B1218B6801DCE
:100DD4007852E2FFB41D067833E4F28010EF600D20
:100DE4007833E22424F8EFF27833E204F2D007D027
:100DF40006D005D004D003D002D001D000D0D0D08A
:080E040082D083D0F0D0E0326F
:101B8400121CD2121C77121CFA7BFE7A00792D12D9
:101B940016B11213121215C57A1179A5740712130E
:061BA40001121B2C80F26F
:10124100CEDE2020D0A1BAAEB4F3BAAEC1A2B4BAF8
:10125100D3EACBAEBEAAD5DDB4BAB7D6C7E5C3F7DC
:10126100B9C8D3EAC1A2CFC4D0A1C2FAC3A2D6D60B
:10127100CFC4D6C1D0A1CAEEB4F3CAEEC1A2C7EFA2
:10128100B4A6CAEEB0D7C2B6C7EFB7D6BAAEC2B629
:10129100CBAABDB5C1A2B6ACD0A1D1A9B4F3D1A995
:1012A100B6ACD6C100C3EBB7D6CAB1C8D5D4C2C497
:1012B100EA6170D2F4C0D6C4D6D6D300B8FDD0C18D
:1012C100C8C9B9EFBCD7D2D2B1FBB6A1CEECBCBA7A
:1012D100C9EAD3CFD0E7BAA5D7D3B3F3D2FAC3AE15
:1012E100B3BDCBC8CEE7CEB400C7E7D3EACEEDD2CB
:0412F100F5D1A9008A
:10033E00004D4AB8000D4A4C000DA5410025AAB645
:10034E0000056A49007AADBD00025D5200092D47D5
:10035E00005C95BA000A954E000B4A43004B553788
:10036E00000AD54A00955ABF0004BA53000A5B48EA
:10037E0000652BBC00052B50000A934500474AB977
:10038E000006AA4C000AD5410024DAB60004B64A8B
:10039E000069573D000A4E51000D2646005E933A05
:1003AE00000D534D0005AA430036B53700096D4BBD
:1003BE0000B4AEBF0004AD53000A4D48006D25BC1D
:1003CE00000D254F000D5244005DAA38000B5A4C0B
:1003DE0000056D410024ADB600049B4A007A4BBE69
:1003EE00000A4B51000AA546005B52BA0006D24ED7
:1003FE00000ADA4200355B370009374B008497C19B
:10040E000004975300064B480066A53C000EA54F0E
:10041E000006B244004AB638000AAE4C00092E421D
:10042E0096B4A5B5A6A6878888788786A5B3A5A510
:10043E00A6A6888888788787A5B496A59696887884
:10044E007878878795B496A596978878786978870F
:10045E0096B4A5B5A6A6878888788786A5B3A5A5E0
:10046E00A6A6888888788787A5B496A5A696888834
:10047E007878878795B496A59697887878697887DF
:10048E0096B4A5B5A6A6878887788786A5B3A5B5A1
:10049E00A6A6888888788787A5B496A5A696888804
:1004AE007878878795B496A596978878787978879F
:1004BE0096B4A5B5A5A6878887788786A5B3A5B572
:1004CE00A6A6878888788787A5B496A5A6968888D5
:1004DE007878878795B496A5969788787879778770
:1004EE0095B4A5B4A5A6878887788786A5C3A5B534
:1004FE00A6A6878888788787A5B4A6A5A696888895
:10050E0078788787A5B496A5969688787879778730
:10051E0095B4A5B4A5A6978787788786A5C3A5B5F4
:10052E00A6A6878888788786A5B4A5A5A696888866
:10053E0088788787A5B496A59696887878797787F0
:10054E0095B4A5B4A5A6978787788796A5C3A5B5B4
:10055E00A6A6878888788786A5B3A5A5A6A6888827
:10056E0088788787A5B496A59696887878788787B1
:10057E0095B4A5B4A5A6978787788796A5C3A5B584
:10058E00A6A6878888788786A5B3A5A5A6A68888F7
:10059E0088788787A5B496A5969688787878878781
:1005AE0095B4A5B4A5A6978787788796A5C3A5B554
:1005BE00A6A6888888788786A5B3A5A5A6A68878D6
:1005CE0088788787A5B496A5A69688887878878731
:1005DE000000001F003B005A0078009700B500D4C1
:0805EE0000F301110130014E80
:10109400EB5FFFEA5EFEE95DFDE85CFCE4FBFAF968
:1010A400F8C30209D124FAF58274E33EF583120AE7
:1010B40009E4FFFEED54F0FDE4FC78140209E208B3
:1010C400F2786EE2FE08E2780222F208F2787A08F8
:1010D400E214F9E4FFFE7D08FCA8010209F524FAF4
:1010E400F58274E33EF583227870E2FE08E2FBAAFF
:1010F40006EA3395E0F9F822FFE2FC08C3E2FD9F1B
:10110400EE6480F8EC64809822E2FE08E27877FFCF
:10111400ED9FF2EC9E18F222FF7881E2FB08E2FADE
:1011240008E2F922E224FFF218E234FFF222E22478
:1011340001F218E2340022F2742E2FF58274043E78
:10114400F583E493227894E25403FE08E254C078D1
:101154000622900004020892900006120892FF33BF
:1011640095E0FE22787CE2FE08E2F4FFEEF42278B9
:0611740078E2FE08E22211
:10002600786EEEF208EFF208ECF208EDF208EAF26A
:01003600EBDE
:100037001210C3C333CE33CED8F91210E2120A0915
:10004700EF5460FFE4FEFDFC78051209E2E47B0152
:100057001210A270211210C5C333CE33CED8F912B5
:1000670010E2120A09EF541FFFEF24FF7875F2E43C
:1000770034FF18F2801E1210C5C333CE33CED8F921
:100087001210E2120A09EF541FFFEF241E7875F2CF
:10009700E43318F27870E2FA08E2FB25E0FFEA336E
:1000A700FE74DC2FF58274053EF58308E2FE08E254
:1000B700FF7401932FFFE4933ECF24FF7877F2EF8D
:1000C70034FF18F2786EE2FE08E2FF7C007D04122E
:1000D7000938ED4C7011D3EB9402EA6480948040A8
:1000E700067877121132F27874E2FE08E2081210ED
:1000F700FC50030201D4787412110D7870E4F208F1
:1001070004F2787AE4F20804F2E4081210CEC0048C
:10011700C005C006C0071210C5C333CE33CED8F909
:100127001210E2120A19D007D006D005D004121017
:1001370094787870030201B20201BA1211737876CB
:100147001210FC4077787812110D787B1211321259
:1001570010C4C333CE33CED8F91210A9C006C007D6
:100167001210ECD007D006C31209D1700E12116815
:10017700FE18F208EFF24E70088000787112113203
:10018700F21210D1C004C005C006C0071210C5C3C3
:1001970033CE33CED8F91210E2120A19D007D0069F
:1001A700D005D00412109478787008F208741DF204
:1001B700020142E4F208741EF20201427877E22457
:1001C700017973F318E2340019F30202E97876E251
:1001D700FE08E2FFC37875E29FF218E29EF2786F9D
:1001E7001211287870E4F2740C1210C3C333CE33A3
:1001F700CED8F91210A91210A0787A7007F20874F5
:100207000CF28006E4F208740DF2E4787C1210CE4A
:10021700C004C005C006C0071210C5C333CE33CE15
:10022700D8F91210E2120A19D007D006D005D00467
:10023700121094787870030202BE0202C61211737C
:10024700FF7874E2FC08D3121101407C1211737815
:1002570075121113787B121128787DE2700218E26B
:10026700700578711211281210C5C333CE33CED85A
:10027700F91210A9C006C0071210ECD007D006C3A8
:100287001209D1700812116818F208EFF21210D192
:10029700C004C005C006C0071210C5C333CE33CE95
:1002A700D8F91210E2120A19D007D006D005D004E7
:1002B70012109478787008F208741DF2020244E470
:1002C700F208741EF20202447874E2FE08E2FFC3E9
:1002D7007879E29FFF18E29ECF24017873F2E43F1A
:1002E70018F27872E2FE08E2FF7894EEF208EFF275
:1002F700AC06AD077870E2FE08E27806C333CE336A
:10030700CED8F9FFEC4E7894F2ED4F1210C3C333F9
:10031700CE33CED8F9248AF58274E51210AFC00621
:10032700C0071210ECD007D006C31209D17004FE23
:060337007F0122E4FEFF3D
:01033D00229D
:10180000E47884F208F212096EFFAEF09000021242
:101810000999FDACF0900004120999FBAAF012009E
:1018200026EF4E6019121149CEC313CE13D8F91208
:10183000111CEF1208F208E4F20804F280111211F0
:1018400049CEC313CE13D8F912111CEF1208F27847
:101850009408E2543F12111C900001EF1209047821
:0618600084E2FE08E2FF35
:01186600225F
:1019490012115CEF24D0788DF2EE340718F21211DF
:1019590056FE3395E0788EF208CEF2900003120815
:1019690092FE3395E07890F208CEF27889E2F90890
:10197900E2FA08E27881C9F208EAF208E9F27BFEA4
:071989007A00798C021800BE
:101792009000031208927892F212115C7C007D0C88
:1017A200120926121156FD3395E0FCEF2DFFEE3C97
:1017B200CF24FFCF34FFFE7892E2FDC3940F501B7B
:1017C200C3740F9D0812113BC4540FFDE2B5050806
:1017D20012115625E014FF227F00227892E2FDB416
:1017E2000F037F0022ED24F1789312113B540FFF77
:0D17F200E2B5070712115625E0FF227F0027
:0117FF0022C7
:101A5E0020920A2092027F0120922B80FB20930A73
:101A6E002093027F0220931E80FB20940A20940272
:101A7E007F0320941180FB20950A2095027F04207D
:061A8E00950480FBE4FF5B
:011A9400222F
:101CE800EFD39400400B7EC77D01DDFEDEFA1F8036
:011CF800EFFC
:011CF90022C8
:031D5A00DFFE2287
:10000300D3EF9400EE940040147D6E7C00ED1D70E0
:0D001300011CED4C70F7EF1F70E61E80E33E
:0100200022BD
:101C8F00D2A37F02121D5AC2A37F147E001200033B
:071C9F00D2A37F1E021D5AB3
:081BAA00EFF2121BB208EFF28A
:101BB200E4FEFD30A3FD7F08121D5AEE25E0FE3043
:0D1BC200A3010E20A3FD0DEDB408E8AF0651
:011BCF0022F3
:1016B100121C8F20A36A30A3FD7F28121D5A121B12
:1016C100B27896121BAA08121BAA789EEFF27F1914
:1016D100121D5A7897E2FF18E22FFFE433FE789843
:1016E100E27C002FFFEC3EFE08E22FFFEC3EFE788D
:1016F1009EE2B5071CECB506187896E2789AF27866
:1017010097E2789BF27898E2789CF27899E2789D5A
:10171100F2789AE21208F2789CE290000112090430
:0117210022A5
:0B1D4600EF1FAC0670011E4C70F6226F
:0218B600AD077C
:1018B800C2AFD2907FE87E03121D46C2907F987E09
:1018C80008121D46E4FBD290ED30E00F7FF47E0154
:1018D800121D46C2907FD27E00800D7FD27E0012FC
:1018E8001D46C2907FF47E01121D46EDC313FD0B09
:0818F800EBB408D2D290D2AF8C
:0119000022C4
:101D0B00AA077F0A1218B6AF021218B67F0B021879
:011D1B00B611
:0C1D39007F147E147DF8DDFEDEFADFF67C
:011D4500227B
:0E1D1C00E4FC20B707121D3920B7010CAF04FC
:011D2A002296
:10143600021B84E493A3F8E493A34003F68001F22D
:1014460008DFF48029E493A3F85407240CC8C333B7
:10145600C4540F4420C8834004F456800146F6DF86
:10146600E4800B0102040810204080901A95E47E67
:10147600019360BCA3FF543F30E509541FFEE4937B
:10148600A360010ECF54C025E060A840B8E493A342
:10149600FAE493A3F8E493A3C8C582C8CAC583CA6D
:1014A600F0A3C8C582C8CAC583CADFE9DEE780BE25
:011AC800001D
:10085700C2D530F707B2D563F0FF05F030E70CB229
:10086700D5F4048463F0FF05F080018430D502F4E9
:02087700042259
:10087900BB010689828A83E0225002E722BBFE027D
:09088900E32289828A83E49322B0
:10089200BB010CE58229F582E5833AF583E022501B
:1008A20006E92582F8E622BBFE06E92582F8E22265
:0D08B200E58229F582E5833AF583E493227F
:1008BF00BB010FF8E58229F582E5833AF583E0283D
:1008CF00F0225009C58229F8E58226F622BBFE09DF
:1008DF00C58229F8E22582F222F8EA2583F583E919
:0308EF0093282229
:1008F200BB010689828A83F0225002F722BBFE01E5
:02090200F322DE
:10090400F8BB010DE58229F582E5833AF583E8F029
:10091400225006E92582C8F622BBFE05E92582C8D5
:02092400F222BD
:10092600EF8DF0A4A8F0CF8CF0A428CE8DF0A42EE5
:02093600FE229F
:10093800C2D5EC30E709B2D5E4C39DFDE49CFCEEDA
:1009480030E715B2D5E4C39FFFE49EFE120A29C31F
:10095800E49DFDE49CFC8003120A2930D507C3E41A
:060968009FFFE49EFE2249
:10096E00BB010A89828A83E0F5F0A3E02250068754
:10097E00F009E71922BBFE07E3F5F009E319228916
:0B098E00828A83E493F5F07401932249
:10099900BB0110E58229F582E5833AF583E0F5F09C
:1009A900A3E0225009E92582F886F008E622BBFE79
:1009B9000AE92582F8E2F5F008E222E5832AF583BF
:0809C900E993F5F0A3E9932284
:1009D100EB9FF5F0EA9E42F0E99D42F0E89C45F07C
:0109E10022F3
:1009E200E8600FECC313FCED13FDEE13FEEF13FFF3
:0309F200D8F12217
:1009F500E86010ECA2E713FCED13FDEE13FEEF1318
:040A0500FFD8F02204
:100A0900E493FC740193FD740293FE740393FF2233
:100A1900E493F8740193F9740293FA740393FB2233
:100A2900BC000BBE0029EF8DF084FFADF022E4CCB1
:100A3900F875F008EF2FFFEE33FEEC33FCEE9DEC7A
:100A4900984005FCEE9DFE0FD5F0E9E4CEFD22EDC0
:100A5900F8F5F0EE8420D21CFEADF075F008EF2F0A
:100A6900FFED33FD4007985006D5F0F222C398FDFB
:050A79000FD5F0EA2298
:00000001FF
